:020000020000FC
:020000003CC101
:0200040018954D
:02000800189549
:02000C00189545
:02001000189541
:0200140018953D
:02001800189539
:02001C00189535
:02002000189531
:0200240017C003
:02002800189529
:02002C00189525
:02003000189521
:0200340018951D
:02003800189519
:02003C00189515
:02004000189511
:0200440018950D
:02004800189509
:02004C00189505
:02005000189501
:10005400009364000F91009367000F910093680070
:1000640000916400E0936500F093660000936400DF
:100074000FB700936100009160000F3F41F4ECE67C
:10008400F0E000916A00E00F00E0F01F00810093AF
:100094006900EEE1F2E01F930F921F920091690054
:1000A40010E4019FE00DF11D1F900F901F9100912E
:1000B4006400019211922192319241925192619283
:1000C400719281929192A192B192C192D192E19254
:1000D400F19201931193219331934193519361933D
:1000E400719381939193A193B193C193D193CE2FA3
:1000F400DF2FF0916600E0916500E993F993009198
:10010400610009930DB709930EB70993009160003C
:100114000F3F41F400916A00ECE6F0E0E00F00E0EC
:10012400F01F0081C0916700D0916800EDE9F0E014
:10013400000FE00F00E0F01FD193C193EDE7F0E072
:1001440000E011912081103011F4203059F0115049
:100154002040029011932083103021F4203011F4B8
:10016400102F1BD501900395003159F70FEF009321
:10017400600000916A00039510916B0013950117BC
:1001840008F000E000936A00ECE6F0E0E00F00E025
:10019400F01F0081EDE9F0E0000FE00F00E0F01F38
:1001A40001911191E02FF12FE0936700F093680023
:1001B400ECE6F0E000916A00E00F0027F01F0081F8
:1001C400EEE1F2E010E4019FE00DF11D01901190C9
:1001D40021903190419051906190719081909190D3
:1001E400A190B190C190D190E190F19001911191C1
:1001F40021913191419151916191719181919191AB
:10020400A191B191C191D191CF93DF93CE2FDF2FE3
:10021400E991F9910F930991009361000991009379
:1002240062000991009363000F91DF91CF910093D5
:100234006400009162000DBF009163000EBF009145
:100244006400E0936500F0936600E0916700F0912C
:100254006800EF93FF93E0916500F09166000093CE
:100264006400009161000FBF00E002BF01E008BF1D
:100274000091640018950FE50DBF04E00EBFE0E6A1
:10028400F0E000270193F430E9F7EF35D9F7EE27D2
:10029400FF270024112422243324442455246624D3
:1002A400772488249924AA24BB24CC24DD24EE2496
:1002B400FF240027112722273327442755276627A1
:1002C400772788279927AA27BB27CC27DD270FEF75
:1002D40000936000EDE9F0E008EB019301E0019385
:1002E4000FEB019301E001930CEB019302E0019306
:1002F40005EC019303E001930EEC019304E00193F8
:1003040011E023E06BD412E021E068D414E022E091
:1003140065D413E021E062D401E009BF01E003BF2A
:100324007894EE27FF270024112422243324442424
:1003340055246624772488249924AA24BB24CC2415
:10034400DD24EE24FF240027112722273327442706
:1003540055276627772788279927AA27BB27CC27DD
:10036400DD27E6EDF0E00027019301930000000093
:100374000000000000000000F9CFE6EDF0E002E02C
:10038400F894E0936500F0936600C0932304D0933F
:1003940024040093640010931E0420931F043093DC
:1003A40020044093210450932204EE2FFF2FE09366
:1003B4002504F0932604002F009327042E2F3F2FAB
:1003C40046ED50E0241B350B532F422F569547958D
:1003D4005695479556954795CDEAD0E0C40FD51F5D
:1003E400440F551F440F551F440F551F241B350B35
:1003F40011E0203019F0110F2A95E9F72881212303
:10040400C9F0E2ECF1E0EF93FF93E0916500F09125
:100414006600C0912304D0912404009164001091DB
:100424001E0420911F043091200440912104509116
:1004340022040ECE31960A9509F600912704E09124
:100444002504F09126042E2F3F2F46ED50E0241B67
:10045400350B532F422F56954795569547955695EC
:100464004795CDEAD0E0C40FD51F440F551F440F64
:10047400551F440F551F241B350B11E0203019F074
:10048400110F2A95E9F72881212B288331960A95A3
:10049400D1F6E0916500F0916600C0912304D091FB
:1004A40024040091640010911E0420911F043091D3
:1004B400200440912104509122047894A191B081A8
:1004C4001196B083A293F894E0936500F0936600CC
:1004D400C0932304D09324040093640010931E0457
:1004E40020931F043093200440932104509322044A
:1004F400EE2FFF2F002F2E2F3F2F46ED50E0241B11
:10050400350B532F422F569547955695479556953B
:100514004795CDEAD0E0C40FD51F440F551F440FB3
:10052400551F440F551F241B350B11E0203019F0C3
:10053400110F2A95E9F710952881212328833196F4
:100544000A95C9F6E0916500F0916600C091230414
:10055400D09124040091640010911E0420911F0482
:100564003091200440912104509122047894F8940D
:100574006FDD03CF12E024E630E0F8948ED312E06E
:1005840057D37894E6EDF0E002E0F894E093650048
:10059400F0936600C0932304D09324040093640072
:1005A40010931E0420931F043093200440932104CD
:1005B40050932204EE2FFF2FE0932504F09326049A
:1005C400002F009327042E2F3F2F46ED50E0241BCD
:1005D400350B532F422F569547955695479556956B
:1005E4004795CDEAD0E0C40FD51F440F551F440FE3
:1005F400551F440F551F241B350B11E0203019F0F3
:10060400110F2A95E9F728812123C9F0E7ECF2E0DC
:10061400EF93FF93E0916500F0916600C09123048D
:10062400D09124040091640010911E0420911F04B1
:1006340030912004409121045091220409CD319637
:100644000A9509F600912704E0912504F091260407
:100654002E2F3F2F46ED50E0241B350B532F422FF6
:10066400569547955695479556954795CDEAD0E0CA
:10067400C40FD51F440F551F440F551F440F551F5A
:10068400241B350B11E0203019F0110F2A95E9F7DE
:100694002881212B288331960A95D1F6E0916500B3
:1006A400F0916600C0912304D09124040091640069
:1006B40010911E0420911F043091200440912104C4
:1006C400509122047894A191B081A03011F4B030FB
:1006D40019F01197B083A293F894E0936500F09316
:1006E4006600C0932304D093240400936400109301
:1006F4001E0420931F04309320044093210450933C
:100704002204EE2FFF2F002F2E2F3F2F46ED50E017
:10071400241B350B532F422F5695479556954795D5
:1007240056954795CDEAD0E0C40FD51F440F551F09
:10073400440F551F440F551F241B350B11E0203067
:1007440019F0110F2A95E9F71095288121232883A0
:1007540031960A95C9F6E0916500F0916600C09162
:100764002304D09124040091640010911E0420916C
:100774001F04309120044091210450912204789464
:10078400F89466DCFFCE13E026E930E0F89485D2D5
:1007940013E04ED27894E6EDF0E002E0F894E093B2
:1007A4006500F0936600C0932304D093240400935F
:1007B400640010931E0420931F043093200440937C
:1007C400210450932204EE2FFF2FE0932504F0938D
:1007D4002604002F009327042E2F3F2F46ED50E0D0
:1007E400241B350B532F422F569547955695479505
:1007F40056954795CDEAD0E0C40FD51F440F551F39
:10080400440F551F440F551F241B350B11E0203096
:1008140019F0110F2A95E9F728812123C9F0E0ED99
:10082400F3E0EF93FF93E0916500F0916600C091CF
:100834002304D09124040091640010911E0420919B
:100844001F0430912004409121045091220400CCD3
:1008540031960A9509F600912704E0912504F09158
:1008640026042E2F3F2F46ED50E0241B350B532F2B
:10087400422F569547955695479556954795CDEAF7
:10088400D0E0C40FD51F440F551F440F551F440F0C
:10089400551F241B350B11E0203019F0110F2A9538
:1008A400E9F72881212B288331960A95D1F6E09126
:1008B4006500F0916600C0912304D0912404009156
:1008C400640010911E0420911F0430912004409173
:1008D4002104509122047894A191B081A03011F4A4
:1008E400B03019F01197B083A293F894E0936500A7
:1008F400F0936600C0932304D0932404009364000F
:1009040010931E0420931F04309320044093210469
:1009140050932204EE2FFF2F002F2E2F3F2F46ED52
:1009240050E0241B350B532F422F5695479556956F
:10093400479556954795CDEAD0E0C40FD51F440F8F
:10094400551F440F551F440F551F241B350B11E031
:10095400203019F0110F2A95E9F7109528812123E9
:10096400288331960A95C9F6E0916500F0916600F6
:10097400C0912304D09124040091640010911E04BA
:1009840020911F04309120044091210450912204AD
:100994007894F8945DDBFFCEE6EDF0E002E0F894A5
:1009A400E0936500F0936600C0932304D09324047D
:1009B4000093640010931E0420931F0430932004BA
:1009C4004093210450932204EE2FFF2FE09325043B
:1009D400F0932604002F009327042E2F3F2F46ED7B
:1009E40050E0241B350B532F422F569547955695AF
:1009F400479556954795CDEAD0E0C40FD51F440FCF
:100A0400551F440F551F440F551F241B350B11E070
:100A1400203019F0110F2A95E9F728812123C9F014
:100A2400E1EDF4E0EF93FF93E0916500F09166004F
:100A3400C0912304D09124040091640010911E04F9
:100A440020911F04309120044091210450912204EC
:100A5400FFCA31960A9509F600912704E09125040E
:100A6400F09126042E2F3F2F46ED50E0241B350B2A
:100A7400532F422F5695479556954795569547952A
:100A8400CDEAD0E0C40FD51F440F551F440F551FA6
:100A9400440F551F241B350B11E0203019F0110FA2
:100AA4002A95E9F72881212B288331960A95D1F6D6
:100AB400E0916500F0916600C0912304D091240474
:100AC4000091640010911E0420911F0430912004B1
:100AD40040912104509122047894A191B081A030D6
:100AE40011F4B03019F01197B083A293F894E09305
:100AF4006500F0936600C0932304D093240400930C
:100B0400640010931E0420931F0430932004409328
:100B1400210450932204EE2FFF2F002F2E2F3F2F5E
:100B240046ED50E0241B350B532F422F5695479525
:100B34005695479556954795CDEAD0E0C40FD51FF5
:100B4400440F551F440F551F440F551F241B350BCD
:100B540011E0203019F0110F2A95E9F7109528813A
:100B64002123288331960A95C9F6E0916500F09116
:100B74006600C0912304D091240400916400109174
:100B84001E0420911F0430912004409121045091AF
:100B940022047894F8945CDAFFCEEF93FF930F93DA
:100BA40000916B0003950031A9F01F9300936B0033
:100BB400ECE6F0E0E00F1127F11F102F20916A00FE
:100BC400121B21912083029002901A95D1F7019073
:100BD4001F9110830F91FF91EF91089500916B0085
:100BE4000395003121F100936B00CEE1D2E013951F
:100BF40000E4019FC00DD11D1A950A91EEE1F2E0C7
:100C040000E4019FE00DF11D01E230E031930A950B
:100C1400E9F7C193D19300916B00ECE6F0E0E00FAB
:100C240000E0F01F11930FEF01932A95B9F6089590
:100C3400ECE6F0E000E02191211721F003950B365A
:100C4400D1F72AC030E010936000102F00916A00A1
:100C5400011711F431E007C0011728F000916A0070
:100C64000A9500936A00ECE6F0E01395E10F00E0CA
:100C7400F01F1A9500916B00011B039520812293AC
:100C8400019001900A95D1F700916B000A950093A9
:100C94006B00303009F0DCC908950F931F93EDE722
:100CA400F0E000E0111F001FE10FF01F21933193CA
:0C0CB4001F910F910895F894CBC908958A
:00000001FF
